:02000002B0004C
:1040000000400B00729D0B00000006000C00050232
:084010000401D41700000000B8
:0440180070940B0095
:1040200081F0004102E000BF83F0004330B54FEA69
:1040300041044FEA430594EA050F08BF90EA020FD6
:104040001FBF54EA000C55EA020C7FEA645C7FEA69
:10405000655C00F0E2804FEA5454D4EB5555B8BF8C
:104060006D420CDD2C4480EA020281EA030382EAFD
:10407000000083EA010180EA020281EA0303362D8F
:1040800088BF30BD11F0004F4FEA01314FF4801C62
:104090004CEA113102D0404261EB410113F0004F74
:1040A0004FEA03334CEA133302D0524263EB43032B
:1040B00094EA050F00F0A780A4F10104D5F1200EC9
:1040C0000DDB02FA0EFC22FA05F2801841F1000124
:1040D00003FA0EF2801843FA05F359410EE0A5F1F8
:1040E00020050EF1200E012A03FA0EFC28BF4CF029
:1040F000020C43FA05F3C01851EBE37101F00045DF
:1041000007D54FF0000EDCF1000C7EEB00006EEBEB
:104110000101B1F5801F1BD3B1F5001F0CD3490875
:104120005FEA30004FEA3C0C04F101044FEA4452CC
:1041300012F5800F80F09A80BCF1004F08BF5FEA53
:10414000500C50F1000041EB045141EA050130BD33
:104150005FEA4C0C404141EB0101013C28BFB1F545
:10416000801FE9D291F0000F04BF01460020B1FA90
:1041700081F308BF2033A3F10B03B3F120020CDA63
:104180000C3208DD02F1140CC2F10C0201FA0CF041
:1041900021FA02F10CE002F11402D8BFC2F1200CA6
:1041A00001FA02F120FA0CFCDCBF41EA0C0190405C
:1041B000E41AA2BF01EB0451294330BD6FEA0404A5
:1041C0001F3C1CDA0C340EDC04F11404C4F1200290
:1041D00020FA04F001FA02F340EA030021FA04F3A2
:1041E00045EA030130BDC4F10C04C4F1200220FAF9
:1041F00002F001FA04F340EA0300294630BD21FA37
:1042000004F0294630BD94F0000F83F4801306BFFC
:1042100081F480110134013D4EE77FEA645C18BFF0
:104220007FEA655C29D094EA050F08BF90EA020F87
:1042300005D054EA000C04BF1946104630BD91EA7F
:10424000030F1EBF0021002030BD5FEA545C05D182
:104250004000494128BF41F0004130BD14F58004C1
:104260003CBF01F5801130BD01F0004545F0FE4135
:1042700041F470014FF0000030BD7FEA645C1ABF6A
:10428000194610467FEA655C1CBF0B46024650EAA1
:10429000013406BF52EA033591EA030F41F40021CD
:1042A00030BD00BF90F0000F04BF0021704730B553
:1042B0004FF4806404F132044FF000054FF0000128
:1042C00050E700BF90F0000F04BF0021704730B5E9
:1042D0004FF4806404F1320410F0004548BF4042BE
:1042E0004FF000013EE700BF42004FEAE2014FEA13
:1042F00031014FEA02701FBF12F07F4393F07F4FEE
:1043000081F06051704732F07F4208BF704793F0F0
:104310007F4F04BF41F40021704730B54FF4607403
:1043200001F0004521F000411CE700BF50EA010206
:1043300008BF704730B54FF000050AE050EA0102AF
:1043400008BF704730B511F0004502D5404261EB1F
:1043500041014FF4806404F132045FEA915C3FF460
:10436000D8AE4FF003025FEADC0C18BF03325FEAFD
:10437000DC0C18BF033202EBDC02C2F1200300FAAE
:1043800003FC20FA02F001FA03FE40EA0E0021FAD3
:1043900002F11444BDE600BF70B54FF0FF0C4CF4C1
:1043A000E06C1CEA11541DBF1CEA135594EA0C0F73
:1043B00095EA0C0F00F0DEF82C4481EA030621EAAE
:1043C0004C5123EA4C5350EA013518BF52EA0335E9
:1043D00041F4801143F4801338D0A0FB02CE4FF09B
:1043E0000005E1FB02E506F00042E0FB03E54FF0CB
:1043F0000006E1FB03569CF0000F18BF4EF0010EC3
:10440000A4F1FF04B6F5007F64F5407404D25FEABE
:104410004E0E6D4146EB060642EAC62141EA555171
:104420004FEAC52040EA5E504FEACE2EB4F1FD0CB3
:1044300088BFBCF5E06F1ED8BEF1004F08BF5FEA31
:10444000500E50F1000041EB045170BD06F00046E3
:1044500046EA010140EA020081EA0301B4EB5C0490
:10446000C2BFD4EB0C0541EA045170BD41F4801188
:104470004FF0000E013C00F3AB8014F1360FDEBFAD
:10448000002001F0004170BDC4F10004203C35DA89
:104490000C341BDC04F11404C4F1200500FA05F30C
:1044A00020FA04F001FA05F240EA020001F00042AD
:1044B00021F0004110EBD37021FA04F642EB060123
:1044C0005EEA430E08BF20EAD37070BDC4F10C044D
:1044D000C4F1200500FA04F320FA05F001FA04F211
:1044E00040EA020001F0004110EBD37041F10001FD
:1044F0005EEA430E08BF20EAD37070BDC4F1200508
:1045000000FA05F24EEA020E20FA04F301FA05F26F
:1045100043EA020321FA04F001F0004121FA04F217
:1045200020EA020000EBD3705EEA430E08BF20EAE7
:10453000D37070BD94F0000F0FD101F00046400021
:1045400041EB010111F4801F08BF013CF7D041EAA3
:10455000060195F0000F18BF704703F000465200A7
:1045600043EB030313F4801F08BF013DF7D043EA78
:104570000603704794EA0C0F0CEA135518BF95EA2E
:104580000C0F0CD050EA410618BF52EA4306D1D1B5
:1045900081EA030101F000414FF0000070BD50EAD4
:1045A000410606BF1046194652EA430619D094EA5E
:1045B0000C0F02D150EA013613D195EA0C0F05D148
:1045C00052EA03361CBF104619460AD181EA03019C
:1045D00001F0004141F0FE4141F470014FF0000054
:1045E00070BD41F0FE4141F4780170BD70B54FF0EF
:1045F000FF0C4CF4E06C1CEA11541DBF1CEA13556F
:1046000094EA0C0F95EA0C0F00F0A7F8A4EB050450
:1046100081EA030E52EA03354FEA013100F0888047
:104620004FEA03334FF0805545EA131343EA126310
:104630004FEA022245EA111545EA10654FEA0026C5
:104640000EF000419D4208BF964244F1FD0404F57E
:10465000407402D25B084FEA3202B61A65EB0305DA
:104660005B084FEA32024FF480104FF4002CB6EB97
:10467000020E75EB030E22BFB61A754640EA0C0017
:104680005B084FEA3202B6EB020E75EB030E22BF57
:10469000B61A754640EA5C005B084FEA3202B6EB98
:1046A000020E75EB030E22BFB61A754640EA9C0057
:1046B0005B084FEA3202B6EB020E75EB030E22BF27
:1046C000B61A754640EADC0055EA060E18D04FEAE5
:1046D000051545EA16754FEA06164FEAC30343EA85
:1046E00052734FEAC2025FEA1C1CC0D111F4801F52
:1046F0000BD141EA00014FF000004FF0004CB6E74B
:1047000011F4801F04BF01430020B4F1FD0C88BFE9
:10471000BCF5E06F3FF6AFAEB5EB030C04BFB6EBF4
:10472000020C5FEA500C50F1000041EB045170BDE7
:104730000EF0004E4EEA113114EB5C04C2BFD4EB14
:104740000C0541EA045170BD41F480114FF0000E98
:10475000013C90E645EA060E8DE60CEA135594EA14
:104760000C0F08BF95EA0C0F3FF43BAF94EA0C0F17
:104770000AD150EA01347FF434AF95EA0C0F7FF48C
:1047800025AF104619462CE795EA0C0F06D152EAE0
:1047900003353FF4FDAE1046194622E750EA4106C4
:1047A00018BF52EA43067FF4C5AE50EA41047FF4D5
:1047B0000DAF52EA43057FF4EBAE12E74FF0FF3C3A
:1047C00006E000BF4FF0010C02E000BF4FF0010C0B
:1047D0004DF804CD4FEA410C7FEA6C5C4FEA430C84
:1047E00018BF7FEA6C5C1BD001B050EA410C0CBFD3
:1047F00052EA430C91EA030F02BF90EA020F002035
:10480000704710F1000F91EA030F58BF994208BF9B
:1048100090422CBFD8176FEAE37040F00100704758
:104820004FEA410C7FEA6C5C02D150EA013C07D1AF
:104830004FEA430C7FEA6C5CD6D152EA033CD3D0FA
:104840005DF8040B704700BF8446104662468C46F4
:104850001946634600E000BF01B5FFF7B7FF002827
:1048600048BF10F1000F01BD4DF808EDFFF7F4FF50
:104870000CBF012000205DF808FB00BF4DF808EDDB
:10488000FFF7EAFF34BF012000205DF808FB00BFFE
:104890004DF808EDFFF7E0FF94BF012000205DF820
:1048A00008FB00BF4DF808EDFFF7CEFF94BF0120D5
:1048B00000205DF808FB00BF4DF808EDFFF7C4FFCE
:1048C00034BF012000205DF808FB00BF4FEA410C17
:1048D0007FEA6C5C02D150EA013C0AD14FEA430CFA
:1048E0007FEA6C5C02D152EA033C02D14FF0000037
:1048F00070474FF0010070474FEA410212F5001275
:1049000015D211D56FF47873B3EB625212D94FEA16
:10491000C12343F0004343EA505311F0004F23FA00
:1049200002F018BF404270474FF00000704750EA55
:10493000013005D111F0004008BF6FF00040704712
:104940004FF00000704700BF4FEA4102B2F1E04370
:1049500024BFB3F5001CDCF1FE5C0DD901F0004C66
:104960004FEAC0024CEA5070B2F1004F40EB8300B6
:1049700008BF20F00100704711F0804F21D113F1E2
:104980003872BCBF01F00040704741F480114FEA1B
:104990005252C2F11802C2F1200C10FA0CF320FAA4
:1049A00002F018BF40F001004FEAC1234FEAD323C1
:1049B00003FA0CFC40EA0C0023FA02F34FEA43032B
:1049C000CCE77FEA625307D150EA01331EBF4FF0B4
:1049D000FE4040F44000704701F0004040F0FE40CF
:1049E00040F40000704700BF80F0004002E000BFCC
:1049F00081F0004142001FBF5FEA410392EA030FCA
:104A00007FEA226C7FEA236C6AD04FEA1262D2EB13
:104A10001363C1BFD218414048404140B8BF5B4218
:104A2000192B88BF704710F0004F40F4000020F0B1
:104A30007F4018BF404211F0004F41F4000121F0C7
:104A40007F4118BF494292EA030F3FD0A2F1010211
:104A500041FA03FC10EB0C00C3F1200301FA03F14F
:104A600000F0004302D5494260EB4000B0F5000F72
:104A700013D3B0F1807F06D340084FEA310102F131
:104A80000102FE2A51D2B1F1004F40EBC25008BFE3
:104A900020F0010040EA03007047490040EB0000AD
:104AA000013A28BFB0F5000FEDD2B0FA80FCACF1AE
:104AB000080CB2EB0C0200FA0CF0AABF00EBC250DB
:104AC00052421843BCBFD0401843704792F0000FC9
:104AD00081F4000106BF80F400000132013BB5E71C
:104AE0004FEA41037FEA226C18BF7FEA236C21D092
:104AF00092EA030F04D092F0000F08BF08467047F7
:104B000090EA010F1CBF0020704712F07F4F04D1C4
:104B1000400028BF40F00040704712F100723CBFD7
:104B200000F50000704700F0004343F0FE4040F401
:104B3000000070477FEA226216BF08467FEA2363BF
:104B40000146420206BF5FEA412390EA010F40F4AA
:104B5000800070474FF0000304E000BF10F00043F6
:104B600048BF40425FEA000C08BF704743F09643DD
:104B700001464FF000001CE050EA010208BF7047F8
:104B80004FF000030AE000BF50EA010208BF70477F
:104B900011F0004302D5404261EB41015FEA010C94
:104BA00002BF84460146002043F0B64308BFA3F18C
:104BB0008053A3F50003BCFA8CF2083AA3EBC2536E
:104BC00010DB01FA02FC634400FA02FCC2F120028D
:104BD000BCF1004F20FA02F243EB020008BF20F0C4
:104BE0000100704702F1200201FA02FCC2F120022A
:104BF00050EA4C0021FA02F243EB020008BF20EA1F
:104C0000DC7070477BB972B90029BEBF00204FF03D
:104C1000004106E008BF00281CBF6FF000414FF0C4
:104C2000FF3000F0A7B9ADF1080C6DE904CE002902
:104C300009DB002B1ADB00F035F8DDF804E0DDE9D4
:104C4000022304B07047404261EB4101002B1BDBA3
:104C500000F028F8DDF804E0DDE9022304B040426A
:104C600061EB4101524263EB43037047524263EBF5
:104C7000430300F017F8DDF804E0DDE9022304B097
:104C8000404261EB41017047524263EB430300F045
:104C900009F8DDF804E0DDE9022304B0524263EBD9
:104CA000430370472DE9F047089D04468E46002BCC
:104CB0004DD18A42944669D9B2FA82F252B101FAD0
:104CC00002F3C2F1200120FA01F10CFA02FC41EAE0
:104CD000030E94404FEA1C48210CBEFBF8F61FFA65
:104CE0008CF708FB16E341EA034306FB07F1994200
:104CF0000AD91CEB030306F1FF3080F01F819942B3
:104D000040F21C81023E63445B1AA4B2B3FBF8F08C
:104D100008FB103344EA034400FB07F7A7420AD913
:104D20001CEB040400F1FF3380F00A81A74240F23B
:104D300007816444023840EA0640E41B00261DB1A6
:104D4000D4400023C5E900433146BDE8F0878B42DB
:104D500009D9002D00F0EF800026C5E9000130469A
:104D60003146BDE8F087B3FA83F6002E4AD18B4274
:104D700002D3824200F2F980841A61EB030301201E
:104D80009E46002DE0D0C5E9004EDDE702B9FFDE0A
:104D9000B2FA82F2002A40F09280A1EB0C014FEAB5
:104DA0001C471FFA8CFE0126200CB1FBF7F307FB12
:104DB000131140EA01410EFB03F0884208D91CEBB5
:104DC000010103F1FF3802D2884200F2CB80434652
:104DD000091AA4B2B1FBF7F007FB101144EA014431
:104DE0000EFB00FEA64508D91CEB040400F1FF31C0
:104DF00002D2A64500F2BB800846A4EB0E0440EAAE
:104E000003409CE7C6F12007B34022FA07FC4CEAB6
:104E1000030C20FA07F401FA06F31C43F9404FEAA9
:104E20001C4900FA06F3B1FBF9F8200C1FFA8CFEBE
:104E300009FB181140EA014108FB0EF0884202FA12
:104E400006F20BD91CEB010108F1FF3A80F08880D3
:104E5000884240F28580A8F102086144091AA4B290
:104E6000B1FBF9F009FB101144EA014100FB0EFE11
:104E70008E4508D91CEB010100F1FF346CD28E4540
:104E80006AD90238614440EA0840A0FB0294A1EBD1
:104E90000E01A142C846A64656D353D05DB1B3EB2E
:104EA000080261EB0E0101FA07F722FA06F3F1405E
:104EB0001F43C5E9007100263146BDE8F087C2F105
:104EC0002003D8400CFA02FC21FA03F3914001437D
:104ED0004FEA1C471FFA8CFEB3FBF7F007FB1036B6
:104EE0000B0C43EA064300FB0EF69E4204FA02F462
:104EF00008D91CEB030300F1FF382FD29E422DD9B5
:104F0000023863449B1B89B2B3FBF7F607FB1633E9
:104F100041EA034106FB0EF38B4208D91CEB010169
:104F200006F1FF3816D28B4214D9023E6144C91AE9
:104F300046EA004638E72E46284605E70646E3E6F9
:104F40001846F8E64B45A9D2B9EB020864EB0C0E03
:104F50000138A3E74646EAE7204694E74046D1E712
:104F6000D0467BE7023B614432E7304609E76444C0
:104F7000023842E7704700BF034613F8012B002AAE
:104F8000FBD1181A0138704709480A49884208B508
:104F900005D0094A824202D0121A04F0A1F907484A
:104FA000074A0021121A04F0A9F9014808BD00BF00
:104FB000D4E50320D49C0B0044E6032044E6032000
:104FC000FCE7032070B5074E074C02F023FAA41B40
:104FD000A4080025AC4200D170BD56F8043B9847A8
:104FE0000135F7E7849C0B00A89C0B0000F03AB851
:104FF00008B500F0D5FBBDE8084002F0C3B901F0E8
:10500000B5BE01F0B3BE01F0B9BE0078B0FA80F0D1
:1050100040097047012303707047000010B5034B2F
:105020000360044601F060F9204610BD70960B0045
:1050300010B50446FFF7F2FF20464FF49871FFF7D2
:10504000E2FF204610BD0EB403B503AB012153F8B7
:10505000042B019302F0FDF802B05DF804EB03B0FD
:105060007047000008B502F075FD4FF4165102F0CC
:1050700065FD322002F05AF90021042002F0C8FF39
:105080000621212002F0C4FF0021232002F0C0FFEE
:105090002220002102F0BCFF344801F07AFA0028F7
:1050A0005BD002F057FD324902F0ABF803F062F832
:1050B00002F026FE2F4801F0E5FA2E48C82101F043
:1050C000F3FA2C48A12101F0EFFA0021294801F060
:1050D00003FB284801F05AFB264801F007FC25484D
:1050E00001F004FB00221146224801F00AFB0022D5
:1050F0002048022101F005FB1F491E4801F067FB13
:1051000000221C48032101F0FCFA1C49194801F057
:105110005EFB00221748042101F0F3FA18491548F4
:1051200001F055FB00221348072101F0EAFA154966
:10513000104801F04CFB0F48134901F048FB13489D
:1051400001F0A7F868B102F005FD114902F059F825
:1051500001F020FC0F4B186008BD02F0FBFC0E496B
:10516000A2E702F0F7FC0D49F0E700BF48E6032094
:1051700084940B00CCE60320B8940B00C1940B0080
:10518000CD940B00D5940B00DB940B0064E6032058
:10519000E3940B00B0E603209E940B00F8940B0000
:1051A00038B510EE100AFFF79FF812A3D3E90023D9
:1051B00004460D46FFF762FBA8B910A3D3E900230C
:1051C00020462946FFF778FB78B90AA3D3E90023E4
:1051D00020462946FEF728FF054B0022FFF7DCF8A2
:1051E000FFF78AFB38BD0020FCE76420FAE700BF28
:1051F00000005940CDCCCCCCCCCC0840666666666D
:105200006666104038B50446114801F0F1F91149BD
:105210000546204601F05FFF0F4B1B68AB4205D1EE
:105220000E49204601F085FF204638BD0C4B1B6817
:10523000AB4201D10B49F4E70B4B1B68AB4201D1E8
:105240000A49EEE70A4B1B68AB42EDD10949E8E792
:1052500048E603200D950B00FC960B0012950B0001
:1052600004970B0019950B0000970B0028950B0075
:1052700008970B0036950B0070B506460B480D4697
:10528000144600F063FE094886ED000A00F0D8FEDF
:105290009FED077A0548C0EE077AC5ED007A00F069
:1052A00085FE012084ED000A70BD00BF64E6032086
:1052B0000000C842000000002DE9F0472DED028BF0
:1052C000494C4A4B2268002A77D11B68236020682A
:1052D000474DDFF830A1FEF7E5FF39A3D3E90023FE
:1052E000FFF784F9FFF730FB2860FEF7FDFF9FED25
:1052F000361B41EC100B02F0FBFF95ED008A18EE17
:10530000100A57EC106BFEF7EFFF31A3D3E900232F
:105310008046894630463946FFF73EF84246064603
:105320000F464B4640464946FFF736F82AA3D3E9D5
:105330000023FFF731F802460B4630463946FEF7A8
:1053400073FEDFED2C7A68EE277A064617EE900A98
:105350000F46FEF7C9FF02460B4630463946FEF7B8
:1053600065FE1FA3D3E90023FEF760FEFFF7ECFA0A
:10537000CAF8000002F0EEFB22681F49FFF763FE47
:1053800002F0E8FB04462868FEF7AEFF02460B4633
:1053900020461A49FFF757FE02F0DCFB0446DAF814
:1053A0000000FEF7A1FF02460B4620461449FFF716
:1053B0004AFEBDEC028BBDE8F0871A6087E700BFAC
:1053C00000000000804F2241000000000000084063
:1053D0009A9999999999F13F6666666666660E4054
:1053E000D7A3703D0AD7E33FB8E60320B4E6032015
:1053F000BCE603200000024440950B0049950B00D9
:1054000055950B00A8E603202DE9F8432DED028BFE
:10541000984607465548DDF828909DF82C40B0EE98
:10542000408A15460E4601F0B1F903224F4800218B
:1054300001F067F9D8F800104C4801F0C8F90022D3
:105440004A48022101F05DF94949484801F0BFF995
:105450003946464801F0C8F94649444801F0B7F9D1
:1054600000224248032101F04CF943493F4801F032
:10547000AEF931463D4801F0B7F940493B4801F0EB
:10548000A6F900223948042101F03BF93C4937488C
:1054900001F09DF9294635483A4D01F0A5F93A4900
:1054A000324801F094F995ED007AF7EE007AB4EE07
:1054B000E77AF1EE10FA15DD00222C48052101F003
:1054C00020F93249294801F082F9D5ED007A2748C0
:1054D000FDEEE77A17EE901A01F086F92C49234881
:1054E00001F075F92CB300222048062101F009F9DA
:1054F00028491E4801F06BF949461C4801F074F92F
:1055000025491A4801F063F9B0EE480A174801F03E
:10551000A3F92249154801F05AF91448072100223D
:1055200001F0EFF81E49114801F051F9E4B91D49A5
:1055300013E0222002F096FD0028D4D022460B482A
:10554000062101F0DEF81849084801F040F907216A
:105550000648224601F0D5F813490448BDEC028BF9
:10556000BDE8F84301F033B91049F6E7CCE6032073
:105570006D950B0074950B0076950B0053950B0001
:1055800081950B00A8E6032089950B008E950B00F2
:1055900066950B0095950B009A950B009E950B0058
:1055A000A1950B00C2950B00AC950B00BD950B00AF
:1055B00013B504468DED000A019100F0A1FF019999
:1055C0000122204600F00AFF20463A2100F0BAFEF0
:1055D0009DED000A204602B0BDE8104000F0B4BFC7
:1055E00030B52DED068B5C4CD3B005462068B0EE8F
:1055F00040AAF0EE609AB0EE419AF0EE618AB0EE09
:10560000428AFEF771FE52A3D3E90023FFF72CF97B
:1056100008B1002323604FF4807212A906A800F09D
:105620007FFE4E4B06937D227B2106A800F073FF80
:1056300006A800F065FF0122494906A800F0CEFE49
:105640003A2106A800F07EFE0122464906A800F095
:10565000C5FE4549B0EE4A0A06A8FFF7A9FF43492F
:10566000B0EE690A06A8FFF7A3FFB0EE490A404969
:1056700006A8FFF79DFF294602A801F04FFD06A8E6
:1056800000F03EFF01223B4906A800F0A7FE3A21A8
:1056900006A800F057FE0122029906A800F09EFE1F
:1056A00002A801F0CDFC3449B0EE680A06A8FFF765
:1056B0007FFFB0EE480A314906A8FFF779FF304B6B
:1056C00006A81D6800F01CFF01222E4906A800F064
:1056D00085FE3A2106A800F035FE2A462A4906A88A
:1056E00000F06FFE294B2A4993ED000A06A8FFF748
:1056F0005FFF94ED000A274906A8FFF759FF06A8A7
:1057000000F02EFE244B079A1B788DF800302349B9
:105710003C2302A801F0DCFF039C7CB16368013BE1
:1057200063605BB9236820469B689847A368013B88
:10573000A3601BB923682046DB68984706A8FFF7DB
:105740006DFC53B0BDEC068B30BD00BFAFF30080E5
:10575000D7A3703D0AD7E33FA8E6032070960B005D
:10576000C8950B00DB940B00CC950B00D1950B007A
:10577000DA950B00E3950B00EF950B00FA950B0003
:10578000B8E6032005960B0045950B00BCE6032008
:105790000E960B0019960B0044E603202C960B0086
:1057A0002DE9F0412DED048B92B00023002104205F
:1057B000099302F081FC604D604BDFF8988118601E
:1057C0002B681844286001F0E5F8D8F80030C01ABA
:1057D0004EF66023984240F2A480212002F055FC4E
:1057E000FEF770FD52A3D3E90023FEF7D5FDFFF7C6
:1057F000ABF800EE100A08EE100AFFF7D1FC0646DF
:10580000222002F02FFC044628B1232002F02AFCBB
:10581000B0FA80F464090AA8FFF7F4FC484800F0E5
:10582000CDFE07EE900AB8EEE72A8DED052A02F0CC
:1058300091F90A9A4349FFF706FC09AA08A907A8A3
:10584000FFF71AFD02F086F907460798FEF74CFDB0
:1058500002460B4638463C49FFF7F5FB02F07AF961
:1058600007460898FEF740FD02460B463846374982
:10587000FFF7E9FB02F06EF907460998FEF734FDE1
:1058800002460B4638463249FFF7DDFBFFF714FDB1
:10589000DDED078A9DED099ADDED089AFDEEE88AB7
:1058A000BDEEC99AFDEEE99A0AA90EA801F036FCF0
:1058B00019EE902A0EAB19EE101AB0EE480A18EE47
:1058C000900ACDE90064FFF79FFD0EA801F0B8FB38
:1058D0009DED070ADDED090A9DED081A8DED040A1C
:1058E0000AA90EA8CDED030A8DED021A01F016FCEF
:1058F0009DED052A9DED021ADDED030A9DED040ADA
:10590000F0EE421A0EA8FFF76BFE0EA801F098FB0E
:1059100000232B6001F03EF8C8F800000AA801F04F
:105920008FFB12B0BDEC048BBDE8F081AFF30080BB
:105930009402C1D2AF63523FB8E60320ACE6032025
:1059400048E6032035960B0045960B004E960B005B
:105950005B960B00B0E6032008B5074B01201870DA
:10596000002101F04FF90548112100F00DFEBDE8BE
:105970000840034800F046B844E6032048E6032008
:1059800064E60320704710B510210446FFF73BFB87
:10599000204610BD0EB403B503AB002153F8042B11
:1059A000019301F056FC02B05DF804EB03B07047C0
:1059B00073B5044608462279A36832B1A3B90B49EE
:1059C00002B0BDE8704001F009BC094A267B094DD0
:1059D0000949647B012E18BF2946CDE90014074907
:1059E000FFF7D8FF02B070BD054AEFE789960B00BC
:1059F000BC950B0085960B0081960B009F960B00C3
:105A000078960B004FF0FF330361704713B50B4CD2
:105A10002178BFF35B8F11F001010BD1204601917A
:105A2000FFF7F3FA019928B1054801F041FA204641
:105A3000FFF7F0FA024802B010BD00BFC0E6032035
:105A4000C4E6032008B5FFF7E1FFBDE8084001F018
:105A50004DBA07B50190FFF7D9FF019903B05DF882
:105A600004EB01F05DBA2DE9F04190F913300133F8
:105A700005460F4606D1FFF7C9FF3946BDE8F0419C
:105A800001F0BCBA002407264FF0010895F9130075
:105A9000002180B202F0CDFA95F9110008FA06F162
:105AA000394080B202F0C5FA95F91300012180B2A5
:105AB00002F0BFFA95F91200640080B2E4B202F07D
:105AC000D1FA08B144F00104013EDFD22046BDE81E
:105AD000F08100007FB590F91030013304460E4686
:105AE000154613D10179006802F03CF9206803687B
:105AF00031469B6898472068036829469B68984709
:105B0000206804B0BDE8704002F037B990F9133056
:105B100001330CD1164B009300238DF80430154B44
:105B2000029368460123ADF80C30FFF792FF94F919
:105B30001000002180B202F07CFA06F07F012046BE
:105B4000FFF791FF29462046FFF78DFF94F91000DB
:105B5000012180B202F06DFA94F91330013304D1BF
:105B600004B0BDE87040FFF76DBF04B070BD00BF6A
:105B7000C4960B0020A10700F8B5DB0002F0070275
:105B800003F03803134343EA81139DF8186080F84B
:105B90003C3090F840309DF81C509DF8207066F322
:105BA000471380F84030ED0090F8383007F00707D1
:105BB00005F0380523F03F033D4304461D4380F8BC
:105BC000385006F00702F221FFF784FF94F83820DE
:105BD000C2F3C20302F007019B0043EA411343EA08
:105BE000D2122046F521FFF775FF94F83C20C2F34E
:105BF000C20302F007019B0043EA411343EA9212F9
:105C00002046F421BDE8F840FFF764BF30B590F9B5
:105C10001030013385B004460D4618D10179006873
:105C200002F0A0F82068036829469B68984720681E
:105C300002F0A3F821792068012202F090F8206890
:105C400003685B699847C5B2284605B030BD90F936
:105C5000133001330CD1154B009300238DF8043021
:105C6000134B029368460123ADF80C30FFF7F1FEA9
:105C700094F91000002180B202F0DBF945F08001B8
:105C80002046FFF7F0FE00212046FFF7ECFE054618
:105C900094F91000012180B202F0CBF994F913308D
:105CA0000133D1D1FFF7CEFECEE700BFC4960B0083
:105CB00020A1070008B5F321FFF7A8FF00F00100BD
:105CC00008BD000030B590F91030013385B00446AE
:105CD0000D461FD10179006802F044F8206803687E
:105CE00029469B689847206802F047F82179206888
:105CF000022202F034F8206803685B699847054681
:105D0000206803685B69984740EA052085B2284609
:105D100005B030BD90F9133001330CD1184B00930E
:105D200000238DF80430174B029368460123ADF829
:105D30000C30FFF78EFE94F91000002180B202F0C3
:105D400078F945F080012046FFF78DFE00212046BE
:105D5000FFF789FE002105462046FFF784FE40EA52
:105D6000052085B294F91000012180B202F061F99A
:105D700094F913300133CAD1FFF764FEC7E700BFBF
:105D8000C4960B0020A1070008B5FFF79BFF40BA9F
:105D900080B208BD38B588210446FFF7F5FF8A2197
:105DA000A0822046FFF7F0FF8C21E0822046FFF71B
:105DB000EBFF8E2120832046FFF7E6FF90216083D2
:105DC0002046FFF7E1FF9221A0832046FFF7DCFF8A
:105DD0009421E0832046FFF7D7FF962120842046B8
:105DE000FFF7D2FF982160842046FFF7CDFF9A216C
:105DF000A0842046FFF7C8FF9C21E0842046FFF7DF
:105E0000C3FF9E2120852046FFF7BEFFA1216085AC
:105E10002046FFF7FBFEE12184F82C002046FFF727
:105E2000B3FFE321E0852046FFF7F0FEE42184F88C
:105E300030002046FFF7EAFEE52105462046FFF741
:105E4000E5FE00F00F0343EA05106086E6212046D8
:105E5000FFF7DCFEE52105462046FFF7D7FEC0F33D
:105E6000071343EA0510A086E7212046FFF7CEFE80
:105E700084F8360038BD000030B590F91030013399
:105E800085B004460D4623D10179006801F06AFF10
:105E90002068036829469B689847206801F06DFFD9
:105EA00021792068032201F05AFF206803685B69AA
:105EB00098470502206803685B69984728430502F4
:105EC000206803685B6998470543284605B030BDE4
:105ED00090F9133001330CD11A4B009300238DF845
:105EE0000430194B029368460123ADF80C30FFF7DC
:105EF000B0FD94F91000002180B202F09AF845F04C
:105F000080012046FFF7AFFD00212046FFF7ABFDE3
:105F1000002105022046FFF7A6FD284305020021C7
:105F20002046FFF7A0FD054394F91000012180B23F
:105F300002F07FF894F913300133C6D1FFF782FDE8
:105F4000C3E700BFC4960B0020A1070010B5FA21DB
:105F50000446FFF791FFB0F5000F1FD0A18A9FED17
:105F6000117A4B00C1EB2022C3EBE011B4F91630DB
:105F7000594302FB02F3B4F918201B1353439B133C
:105F800003EBE123E36003EB830380331B1207EE93
:105F9000903AF8EEE77A87EE870A10BD9FED020A85
:105FA000FBE700BF0000C8420000C07F38B50446D0
:105FB000FFF7CCFFFD212046FFF784FEB0F5004F30
:105FC00038D0E168B4F93420A1F59635B4F932102F
:105FD0000905C1EB803305FB123303F58043DA1367
:105FE00094F8303094F936106B43DB126943891210
:105FF00003F500434B439B12B4F92E1003F5001335
:106000004B4303F500539B135343DA1394F82C10BE
:106010005243D2114A43A3EB221323EAE373B3F1B1
:10602000C85FA8BF4FF0C8531B1300EE103ABAEE7A
:10603000CB0A38BD9FED010AFBE700BF0000C07F1F
:106040002DE9F8430546FFF781FFF7212846FFF7C2
:1060500013FFB0F5000F00F0B680E968B5F91C3009
:106060004FEAE17EB1F5FA314EF1FF3EDC1703FB5A
:106070000EF201FB0422A3FB013422441203A1FB14
:1060800001781C0301FB0EF642EA1352B5F91E30EB
:1060900008EB46084FEAE37C03FB08F607FB0C66B7
:1060A000A3FB073C66441B0A43EA06631B1942EB49
:1060B00026226E8B02F50042A3FB063406FB024447
:1060C000E317621053EA64044FF0000C7ED0B5F978
:1060D000244004FB08F64FEAE47907FB0966A4FBB9
:1060E00007473E44B5F922704FEAE77807FB0EFEFA
:1060F00001FB08EEA7FB01717144490441EAD73165
:1061000000117F043F19C0F5801446EB010604F02E
:106110000040B5F920101CEB070740EA5400E407E3
:10612000E41B06EBC10640F6354160EB0606A4FB16
:10613000010401FB0641FEF765FDB5F92A20B5F91A
:1061400028604FEA613C430B43EAC14302FB0CF772
:10615000D41703FB0477A2FB03243C4402FB0CF797
:1061600003FB0477A2FB03231F44530E43EAC71328
:106170001B184FEAE67206FB01F4864641EB67679F
:1061800002FB0041A6FB0E06B5F926403144C00CC7
:1061900040EA413018184FEAE47547EBE141000A44
:1061A0002D0140EA016045EA14752401201845EBF1
:1061B0002121FEF7E9FC9FED070A07EE900A27EE82
:1061C000800ABDE8F8839FED040AFAE79FED030A11
:1061D000F7E700BF0000803B0000C07F0000000028
:1061E00030B5044690F91000421C85B019D12068E2
:1061F00001F086FDD0212046FFF708FD6028A06051
:1062000045D12046B622E021FFF764FC4FF496709A
:1062100001F08CF82046FFF74DFD054628B36420B9
:10622000F6E7012180B201F004FF94F9100001218A
:1062300080B201F0EDFE94F91300431C04D1FFF786
:10624000E5FB00F03FFED5E7012180B201F0E0FE62
:1062500094F91100012180B201F0DAFE94F91200E4
:10626000002180B201F0D4FEC4E72046FFF792FD82
:10627000052300931A4603212046CDE90155FFF777
:106280007BFC642001F052F8012005B030BD0020F5
:10629000FBE7772310B50371044601F06BFF206024
:1062A0002046FFF79DFF30B9762323712046BDE8D5
:1062B0001040FFF795BF10BD10B5054B0360037C80
:1062C00004461BB9406808B100F058FD204610BDD7
:1062D000E4960B0010B50446FFF7EEFF20461421AC
:1062E000FEF791FE204610BD10B5034B0360044637
:1062F000FFF7E2FF204610BDF4960B0010B50446F0
:10630000FFF7F2FF20463021FEF77DFE204610BD4C
:1063100000230122C3604361028380F82A30704762
:10632000C0E9011208B50022C26001220274044AC9
:1063300002604FF0FF32C262FFF7EAFF08BD00BF04
:10634000F4960B00D0E9022310B593423FBF426898
:106350005C1CC460D15424BF012380F82A3010BDD6
:1063600010B54369044643B100EB4303597E09B1BC
:10637000FFF7E8FF6369013B6361D4E902106368DA
:1063800088424FF000022ABF5B181A5403F8012C10
:1063900010BD70B50446D0E9025066682D1A134648
:1063A00030440A46294600F0F9FC85422DBFE368D7
:1063B000A368E360C01836BF0123E06084F82A3088
:1063C00070BD0EB403B503AA52F8041B0192FFF787
:1063D000E0FF02B05DF804EB03B070472DE9F8432D
:1063E00004460E46174612B12221FFF7ABFFDFF835
:1063F0000C810025715D06EB0509002974D0D4E9F4
:1064000002329A4270D20B0634D501F0F003E02B31
:1064100005F101091DD116F8092002F0C003802BF7
:1064200039D105F1020916F8093003F0C0008028BF
:1064300031D103F03F03920143EA013302F47C625D
:106440001A4392B241462046FFF7BBFF4D46013545
:10645000D0E701F0E003C02B1DD116F8093003F09E
:10646000C002802A17D1890101F4F86203F03F03CA
:106470001A43E7E70D290AD807290CD9A1F1080327
:10648000052B08D8DFE803F009231707111D22297F
:1064900023D05C2921D0204604E05C212046FFF770
:1064A00051FF6221FFF74EFFD1E75C212046FFF745
:1064B00049FF6621F6E75C212046FFF743FF6E2186
:1064C000F0E75C212046FFF73DFF7221EAE75C21FF
:1064D0002046FFF737FF7421E4E75C212046FFF7F1
:1064E00031FF99F80010DDE72FB120462221BDE8E9
:1064F000F843FFF727BFBDE8F88300BFD0960B0035
:10650000426900EB42031A7E12B100221A767047EC
:106510002C21FFF717BF73B5436901910133082B95
:1065200016460FD8FFF7ECFF4369019900EB4304CF
:106530005A1C01254261A576E676FFF703FF28463F
:1065400002B070BD0020FBE737B5044610EE100A1C
:10655000FDF7CAFEE56A002D02460B4608DBCDE9D1
:10656000002307492A462046FFF72BFF03B030BD22
:106570000449204603B0BDE83040FFF722BF00BF0A
:10658000D7960B0058960B000022C0E90422016048
:10659000704710B50446008801F077FD40F21233D1
:1065A000A0F10B029A4207D8C4E90100E06000F0B4
:1065B000F1F9A061012010BD0020FCE78068704760
:1065C00010B5044600F0E6F9A369C01A074B9842DB
:1065D0000AD9D4E9043293FBF2F3E36000F0DAF96C
:1065E0000023C4E90433A06110BD00BF20A107004F
:1065F00010B5836843600446008801F046FD2369B6
:10660000A060184463692061013363612046FFF78D
:10661000D7FFD4E90112511AB1F5C87F10DCB2F5E9
:106620002F7F0DDCE368D31A962B0BDCC82902DD23
:10663000B2F52F7F08D1322BCCBF0220032010BD32
:106640000020FCE70120FAE70220F8E70368C9B25E
:106650009B68184710B5044601F08CFD3C2101F001
:1066600085FB01F087FD8021FFF7F0FF01F082FD3F
:10667000036821469B68984701F07CFDBDE8104007
:1066800001F07BBB08B5AE20FFF7E4FF052000F06A
:106690004DFEAF20FFF7DEFF052000F047FEBDE80E
:1066A0000840A620FFF7D6BF10B50C4601F062FDEA
:1066B0003C2101F05BFB01F05DFD8021FFF7C6FF8F
:1066C00001F058FD036821469B68984701F052FD90
:1066D000BDE8104001F051BB10B581200C46FFF71A
:1066E000B9FF2046BDE81040FFF7B4BF08B501234D
:1066F00003702020FFF7AEFFBDE808400220FFF73F
:10670000A9BF10B550391446C8B2FFF7A3FFE00087
:1067100000F00800FFF79EFFC4F343001030BDE80F
:106720001040FFF797BF10B50C4601F023FD3C2148
:1067300001F01CFB01F01EFD4021FFF787FF01F077
:1067400019FD036821469B68984701F013FDBDE8D9
:10675000104001F012BB0000A1F120035F2B88BFA5
:10676000202170B501F10051074D2039064605EB97
:10677000C105082415F8011B3046013CFFF7D3FF83
:1067800014F0FF04F6D170BD0E970B0070B50546EE
:10679000AE20FFF75FFF00260022F1B22846FFF788
:1067A000B0FF102420212846013CFFF7D5FF14F04C
:1067B000FF04F7D10136082EEED1AF20FFF74AFFD4
:1067C000224621462846BDE87040FFF79ABF70B5C3
:1067D00006460D460024E3B20134E95C19B13046A7
:1067E000FFF7BAFFF7E770BDF0B585B000230C1EC8
:1067F000CDE901330646ADF80C3024DA2D21FFF740
:10680000ABFF6442012300250A202A4604A90A445A
:106810000135B4FBF0F100FB114402F80C4CEDB271
:106820000C460029F1D12B44DCB204AB5F190D3FBB
:1068300075B117F801193031C9B23046013DFFF783
:106840008BFFEDB2F4E7DED13021FFF785FF0124A5
:10685000204605B0F0BD000038B5B5EEC00AF1EE37
:1068600010FA2DED048B0546B0EE408A37D51D4950
:10687000FFF7ADFFB1EE488A01249FED1B0A38EE09
:10688000008A2846FCEEC88AB2EE049A18EE901AE6
:10689000FFF7AAFF2E2104442846FFF75DFFF8EE1C
:1068A000688A284638EE688AE4B228EE098AFCEE47
:1068B000C88A18EE901AFFF797FFF8EE688A284604
:1068C00038EE688A28EE098AFCEEC87A17EE901A2C
:1068D000FFF78AFFBDEC048BE01CC0B238BD00247A
:1068E000CBE700BF0C970B000AD7A33BA620FFF70E
:1068F000B1BE000008B5024B1B689B68019308BD40
:106900006802030008B5024B1B68DB68019308BDF1
:106910006802030008B5024B1B685B68019308BD61
:106920002C02030008B5024B1B689B68019308BD4D
:106930002C02030008B5024B1B68DB68019308BDFD
:106940002C02030008B5024B1B681B69019308BDAC
:106950002C02030008B5024B1B685B69019308BD5C
:106960002C02030008B5024B1B681B6B019308BD8A
:106970002C02030008B5024B1B68DB6C019308BDB9
:106980002C02030008B5024B1B685B68019308BD2D
:106990001802030008B5024B1B685B69019308BD30
:1069A0001802030008B5024B1B685B6C019308BD1D
:1069B0004802030008B5024B1B685B69019308BDE0
:1069C0006402030008B5024B1B68DB68019308BD35
:1069D0003C02030008B5024B1B681B69019308BD0C
:1069E0003C02030008B5024B1B685B69019308BDBC
:1069F0003C02030008B5024B1B689B69019308BD6C
:106A00003C02030008B5024B1B68DB69019308BD1B
:106A10003C02030008B5024B1B681B6A019308BDCA
:106A20003C02030008B5024B1B689B6A019308BD3A
:106A30003C02030008B5024B1B681B6C019308BDA8
:106A40003C02030008B5024B1B68DB68019308BDDC
:106A50002802030008B5024B1B689B69019308BD1F
:106A60002802030008B5024B1B68DB69019308BDCF
:106A70002802030008B5024B1B681B6A019308BD7E
:106A80002802030008B5024B1B685B6A019308BD2E
:106A90002802030008B5024B1B689B6A019308BDDE
:106AA0002802030008B5024B1B68DB6A019308BD8E
:106AB0002802030008B5024B1B681B6B019308BD3D
:106AC0002802030008B5024B1B685B6B019308BDED
:106AD0002802030008B5024B1B681B6C019308BD1C
:106AE0002802030008B5024B1B681B6D019308BD0B
:106AF0002802030008B5024B1B681B68019308BD00
:106B00003002030008B5024B1B685B69019308BDA6
:106B10003002030008B5024B1B68DB69019308BD16
:106B20003002030008B5024B1B681B6A019308BDC5
:106B30003002030008B5024B1B685B6A019308BD75
:106B40003002030008B5024B1B68DB6B019308BDE4
:106B50003002030008B5024B1B681B6C019308BD93
:106B60003002030008B5024B1B685B6C019308BD43
:106B70003002030008B5024B1B681B68019308BD77
:106B80004C02030008B5024B1B685B68019308BD0B
:106B90004C02030008B5024B1B681B69019308BD3A
:106BA0004C02030008B5024B1B685B69019308BDEA
:106BB0004C02030008B5024B1B689B69019308BD9A
:106BC0004C02030008B5024B1B68DB69019308BD4A
:106BD0004C02030008B5024B1B681B6A019308BDF9
:106BE0004C02030008B5024B1B685B68019308BDAB
:106BF0002002030008B5024B1B685B69019308BDC6
:106C00002002030008B5024B1B68DB6A019308BD34
:106C10002002030008B5024B1B68DB6C019308BD22
:106C20002002030008B5024B1B685B6D019308BD91
:106C30002002030008B5034B1B68D3F8883001938A
:106C400008BD00002002030008B5034B1B68D3F801
:106C50009430019308BD00002002030008B5024BE8
:106C60001B685B68019308BD4002030008B5024B36
:106C70001B689B68019308BD4002030008B5024BE6
:106C80001B68DB68019308BD4002030008B5024B96
:106C90001B681B69019308BD4002030008B5024B45
:106CA0001B685B69019308BD4002030008B5024BF5
:106CB0001B689B69019308BD4002030008B5024BA5
:106CC0001B68DB69019308BD4002030008B5024B55
:106CD0001B681B6A019308BD4002030008B5024B04
:106CE0001B681B6B019308BD4002030008B5024BF3
:106CF0001B685B6B019308BD4002030008B5024BA3
:106D00001B681B6C019308BD4002030008B5024BD1
:106D10001B685B6C019308BD4002030008B5024B81
:106D20001B685B6D019308BD4002030008B5024B70
:106D30001B689B6D019308BD4002030008B5024B20
:106D40001B685B69019308BD4402030008B5024B50
:106D50001B681B6A019308BD4402030008B5024B7F
:106D60001B68DB6B019308BD4402030008B5024BAE
:106D70001B681B68019308BD1C02030008B5024B89
:106D80001B685B68019308BD1C02030008B5024B39
:106D90001B689B68019308BD1C02030008B5024BE9
:106DA0001B685B6A019308BD1C02030008B5024B17
:106DB0001B68DB6A019308BD1C02030008B5024B87
:106DC0001B681B6B019308BD1C02030008B5024B36
:106DD0001B68DB6B019308BD1C02030008B5024B66
:106DE0001B681B6C019308BD1C02030008B5024B15
:106DF0001B685B6C019308BD1C0203000022406805
:106E00001146FFF763BF002240681146FFF76EBFCF
:106E100040680022FFF762BF4068002281F0010154
:106E2000FFF74CBF002340681A461946FFF73EBFE4
:106E3000002340681A461946FFF730BF0022406819
:106E40001146FFF723BF002240681146FFF70EBF2F
:106E5000406800220221FFF711BF002340681A4654
:106E6000FFF7FCBE024B03225A60024A1A607047C9
:106E7000D0E60320189A0B0038B5046805467CB1AB
:106E80006368013B63605BB9236820469B68984751
:106E9000A368013BA3601BB923682046DB689847C1
:106EA000284638BD0021FFF75DBE0021FFF752BE26
:106EB00010B5044608462170FFF72CFE00236360DE
:106EC000204610BD13B504460078FFF7EEFF58B911
:106ED000207801904FF6FF71FFF70CFE019802B089
:106EE000BDE81040FFF7DEBF02B010BD0078FFF72D
:106EF000D9BF0000400830B51860002418688842E7
:106F0000E5B206D90134082C02D040081860F5E734
:106F10000725024B5B5D137030BD00BF549A0B0018
:106F20002DE9F04306468FB000780C46FFF7BDFF11
:106F300000281BDB35781422002109A802F0DEF9B5
:106F40000B23002209A92846ADF82430FFF7F2FDF3
:106F50009DF82D3013B19DF82C5055B10027B9463E
:106F6000B846012523795DB1C3B100200FB0BDE85B
:106F7000F083DDF830809DF834909DF83570F1E7AE
:106F8000002B35D1A368434508D18DF820908DF8AA
:106F90002170BDF82020A3899A42E6D00023A16881
:106FA0008DF80F300A9804AB0DF10F02FFF7A2FF26
:106FB000217985B989B9A36843450ED38DF820900E
:106FC0008DF82170BDF82020A3899A4205D1049B39
:106FD000434502D1C9E70029F9D100230193637B1E
:106FE00000939DF80F20237B3078FFF7ABFDBCE7C3
:106FF000CDE900552B462A460121F5E708B5007872
:10700000FFF780FDC0B208BD10B58368044613B118
:10701000032201469847204610BD0000054B02227E
:107020001A60054B054A9A600020C3E90000FFF78B
:10703000D9BD00BFE4E60320D8E603200000FFFF2F
:1070400010B504460068FFF799FE204610BD10B544
:107050000446006808B1FFF791FE0023C4E901333C
:10706000236010BD38B504460D4600680131FFF7B6
:107070008DFE10B1C4E90005012038BD10B50368CC
:10708000044623B143688B4201D3012010BD204642
:10709000FFF7E8FF0028F9D0A368002BF5D122689C
:1070A0001370F2E737B50D46114601920446FFF71B
:1070B000E5FF019A28B92046FFF7C9FF204603B033
:1070C00030BDA2602946206802F00AF92268A36850
:1070D0000021D154F2E7002313B5C0E90033044680
:1070E0008360037341B108460191FDF745FF0199A3
:1070F00002462046FFF7D6FF204602B010BD884268
:1071000010B5044605D00B682BB18A681946FFF705
:10711000C9FF204610BDFFF79AFFFAE710B500231C
:107120000446C0E9003383600373FFF7E8FF20469D
:1071300010BD13B5044659B108460191FDF71CFF77
:10714000019902462046FFF7ADFF204602B010BD70
:10715000FFF77DFFF9E713B50B460246D0E90001C2
:107160006C4684E8030093E8030082E8030094E897
:10717000030083E8030002B010BD000002480023B2
:107180000360FFF70FBC00BFE8E60320F8B5064632
:107190000D468F180024BD420CD0336815F8011B32
:1071A0009B6830469847031E01DB1C44F3E7002C24
:1071B00008BF1C462046F8BD13B50446084659B121
:1071C0000191FDF7D9FE23680199DB68024620464C
:1071D00002B0BDE81040184702B010BD08B5FFF777
:1071E000EBFF08BD03689B68184738B50D210546BD
:1071F000FFF7F8FF0A2104462846FFF7F3FF204473
:1072000038BD38B50546FFF7D7FF04462846FFF7D7
:10721000ECFF204438BD30B58BB00023012A8DF837
:10722000243098BF0A2209AC0D46B1FBF2F101FBF4
:10723000125303F0FF03092B94BF30333733DBB213
:10724000AA4204F8013DEFD92146FFF7B5FF0BB084
:1072500030BD2DE9F04186B000AF05460E46381D21
:10726000142114463B60FFF799FD13280ED8391DF1
:107270002846FFF7A1FF04461EB12846FFF7B5FFD9
:10728000044420461837BD46BDE8F08100F10803EC
:1072900023F00703E846ADEB030D2246411C3B6893
:1072A0006846FFF77BFD69462846FFF785FF0446E1
:1072B000C546E1E710B50446FFF76CFBE0602368C4
:1072C00020465B699847002808DAFFF763FBE3680C
:1072D000C01AA3689842F2D34FF0FF3010BD2DE9D9
:1072E000F04107460C468E180D46B542A5EB040842
:1072F00007D03846FFF7DEFF031E02DB05F8013B2F
:10730000F3E74046BDE8F081014B024A1A6070473E
:10731000ECE603205C9A0B00024B1A68024B1A60E1
:10732000704700BFD4E50320F0E603200021FFF7FB
:1073300061BC0000014B00229A607047F4E6032014
:10734000014B1860704700BFDCE5032008B50B4B0C
:1073500043B100F0FFFB03681B699847002801DD7B
:10736000AFF30080064B43B100F0C4FE03681B6915
:107370009847002801DDAFF3008008BD0000000041
:107380000000000008B5FFF7E1FFFFF703FB014B2A
:10739000186008BD4CE703200548064A064908B5B1
:1073A000121A01F09DFF054B054A1A6008BD00BF87
:1073B00000F4032004F40320449D0B0000F4032098
:1073C0001E1C279A07B5002300931A466FF0770119
:1073D000FFF73AFC03B05DF804FB000007B54388F3
:1073E0000A2B08D0502B0BD1094B1B684BB103B0B3
:1073F0005DF804EB1847FFF7E5FF03B05DF804FB09
:10740000002300931A466FF07701FFF71DFCF4E7A5
:1074100008E7032010B512480021FFF7E7FC114BE5
:107420001A68114B9A42114B0CBF012200221A70AC
:1074300001D0FFF7B1FFFFF7A5FA044601F066FFA0
:107440000B4B13B12046AFF3008000210848FFF733
:1074500085FCBDE8104007480021FFF7EBBB00BFEB
:1074600041730B0000F403201E1C279A04E703203D
:1074700000000000DD730B0070470020704710B55E
:1074800010210446FDF7BFFD204610BD08B5FFF7EB
:10749000F6FF08BD30B500224FF69C740260848070
:1074A0008D888C800C68858004600A6030BD10B5C2
:1074B00004460068FFF762FC204610BD38B5C4687A
:1074C000F4B12378022B03D104F10C00FFF7EFFF96
:1074D000656835B12846FFF797FD10212846FDF76E
:1074E00092FDA56835B12846FFF78EFD102128468C
:1074F000FDF789FD20461421BDE83840FDF783BD26
:1075000038BD0B6803604B68436013B15A680132A1
:107510005A60704737B5044668460D46FFF7F1FFDD
:10752000009B019A23606260002301A801930093ED
:10753000FFF7A2FC35B1281DFFF79EFC0821284665
:10754000FDF761FD204603B030BD826810B50AB971
:1075500000F036FEBDE81040C368184708B5006863
:1075600000F11001FFF7F1FF08BD826810B50AB9FC
:1075700000F026FEBDE81040C368184708B5006853
:1075800000F11001FFF7F1FF08BD000038B500233E
:107590000446036010200D46FDF731FD28B101239C
:1075A000C0E90133024B0360C5602060204638BD4E
:1075B000849A0B0038B5002383608B6804460D461F
:1075C0002BB102229847EB68E360AB68A3602046CA
:1075D00038BD0000F0B589B004686846FFF75AFF6F
:1075E0004FF00203D4E84F2F002A03D1C4E8413FF3
:1075F0000029F7D125D104F10C0569462846FFF78B
:1076000049FFBFF35B8F01236370002004F108037F
:10761000BFF35B8F53E8006F43E80002002AF9D103
:10762000BFF35B8F6EB1FFF7F5FA78B129463046AC
:10763000FFF78BFF3046FFF7E7FC10213046FDF7E0
:10764000E2FC6846FFF733FF09B0F0BD314602A8FF
:10765000FFF7B0FFE068B4F9105008B101F084FE04
:1076600006901020ADF81C50FDF7C9FC0546E8B1A6
:10767000002787601820FDF7C2FC044688B1014648
:10768000876002A8FFF767FD049BA268A360059BC3
:10769000049206A9E268E36004F110000592FFF786
:1076A000F9FE084BEB60084B2C60AB6006A8FFF7B7
:1076B000FEFE02A8FFF7A8FC002229460348FFF7B8
:1076C000B1FAB7E75D750B00E1770B00457C0B0065
:1076D0002DE9F04F8BB005469DF850A00F4690461F
:1076E0009946FFF72BFB07AE834638BB4FF62E7348
:1076F000059005A93046ADF81830FFF7CBFE1420F1
:10770000FDF77DFC044648B1022303700123C0E964
:1077100001BB437031460C30FFF7BCFE28462146C2
:1077200040F8044BFFF732FF3046FFF7C0FE05A8D4
:10773000FFF7BDFE28460BB0BDE8F08F0C230024F8
:107740001420CDE908440793FDF759FC014618B110
:10775000C0E901440470447004A80391FFF716FFC8
:107760001E4B08930820FDF74AFC044610B103A9FC
:10777000FFF7C7FE00965FFA8AF34A46414638464D
:107780000994FFF7E3FAB8B9039B5B7803F0FF02B3
:1077900093B94FF69C7305A903A80592ADF818306C
:1077A000FFF718FF05A8FFF782FE05A80999FFF764
:1077B000B1FE06A8FFF760FB03A905A8FFF7A1FE2D
:1077C000059B069A2B606A60002306A80693059322
:1077D000FFF752FB04A8FFF74FFBABE7A5780B00C0
:1077E000012AF8B5054603D10B6803600020F8BDF7
:1077F000022A10D0032AF9D10468002CF6D004F133
:107800001000FFF754FE2046FFF7FEFB182120462C
:10781000FDF7F9FBEAE718200E68FDF7F0FB0446D8
:1078200050B13146FFF7C6FE3069B6F9147008B1A1
:1078300001F09AFD2061A7822C60D7E738B50023BC
:1078400083608B6804460D462BB102229847EB6893
:10785000E360AB68A360204638BD012A70B50446DA
:1078600003D10B680360002070BD022A0CD0032AEC
:10787000F9D10468002CF6D02046FFF7C5FB14218F
:107880002046FDF7C0FBEEE714200E68FDF7B7FBBE
:10789000054620B13146FFF7D1FF337C2B742560BC
:1078A000E1E70000F0B589B004460D4601A8114695
:1078B000FFF730FEA4B124B21DB1284601F054FDFB
:1078C000054601A803A90395ADF81040FFF782FE15
:1078D00003A8FFF7ECFD02A8FFF7CEFA09B0F0BD50
:1078E000019D0123D5E84F2F002A03D1C5E8413F70
:1078F0000029F7D1EFD12B73BFF35B8F6B702B1D7A
:10790000BFF35B8F53E8006F43E80042002AF9D1D0
:10791000BFF35B8F002EDED02046FFF77BF90746D2
:1079200060B105F10C013046FFF71FFE3046FFF74E
:107930006BFB10213046FDF766FBCCE7314603A810
:10794000FFF77CFF2B7B8DF81C301020FDF757FBD9
:107950000546D0B187601420FDF751FB044678B18D
:107960008760014603A8FFF7F6FB059BA268A360AA
:10797000069B0592E268E3609DF81C300692237432
:10798000064BEB60064B2C60AB6003A8FFF73CFB9B
:10799000002229460348FFF745F9C7E77D750B002C
:1079A0005B780B00457C0B00704710B5182104462E
:1079B000FDF729FB204610BDF0B5037D062B8DB0E9
:1079C0000E4600F104074FF0000412D000F1080544
:1079D00015F8011D0A223046FFF71DFCAF42044492
:1079E00019D0002CF4D02E213046FFF7FBFB0444C5
:1079F000EEE72F236A4639460A208DF80040FEF74D
:107A0000D9FF6846FDF7B8FA33680246DB68694675
:107A100030469847044620460DB0F0BD10B5054BE2
:107A20000446112240F8043B002101F067FC204687
:107A300010BD00BFA09A0B000346074A10B543F8DB
:107A4000042B01F1100251F8044B43F8044B91420E
:107A5000F9D10A781A7010BDA09A0B0010B59DF8E4
:107A6000084044EA032343EA024242EA0161042354
:107A70004160037510BD000007B5064B0360CB786D
:107A800000938B784A780978FFF7E8FF03B05DF838
:107A900004FB00BFA09A0B00417470477047704709
:107AA00008B50021007CFFF785F840EAE07008BDCA
:107AB00008B50121007CFFF77DF840EAE07008BDC1
:107AC00008B5007CFFF76EF820EAE07008BD08B545
:107AD000007CFFF75FF820EAE07008BD13B50446AC
:107AE000007C0191FFF75EF80028019901DC607CC1
:107AF00020B1207CFFF766F820EAE07002B010BDEC
:107B0000007CFFF767B810B514210446FDF77BFA37
:107B1000204610BD10B54FF47A7304460846002184
:107B2000C4E90113044B23600123207463741146DC
:107B3000FFF720F8204610BDB49A0B00007C00220D
:107B4000FFF720B810B514220446002101F0D6FB3F
:107B5000204610BD10B50F4C88B003A8FFF7F2FF08
:107B60002178BFF35B8F11F001010FD12046019105
:107B7000FDF74BFA019948B103AA0748FFF7CAFF7E
:107B80002046FDF747FA054801F0A4FB024808B07B
:107B900010BD00BF0CE7032010E703209D7A0B0007
:107BA00070474174704708B5007CFEF73BFF20EA40
:107BB000E07008BD08B5007CFEF70CFF20EAE0701D
:107BC00008BD08B5007CFEF715FF40EAE07008BD6F
:107BD00008B5007CFEF706FF40EAE07008BD007CB7
:107BE000FEF710BF37B5457C04462DB1207C03B0AD
:107BF000BDE83040FEF7E6BE007C0191FEF712FFC3
:107C000000280199F2DC284603B030BD10B51421DC
:107C10000446FDF7F8F9204610BD000010B54FF4FA
:107C20007A730446084611460022C4E90123044B36
:107C30002360012320746374FEF7FCFE204610BD10
:107C4000E89A0B0010B5836804460BB900F0B8FA47
:107C5000C3689847A3681BB1032221462046984772
:107C600020461021BDE81040FDF7CDB97047F8B5AA
:107C7000064615460C468F18BC4206D0336814F8E9
:107C8000011B9B6830469847F6E72846F8BD007C04
:107C90000022FEF7EFBE007C0021FEF7F3BE007C61
:107CA0000021FEF7F7BE007C0021FEF7FBBE007C42
:107CB0000021FEF7FFBE10B514210446FDF7A3F91D
:107CC000204610BD38B5044615464FF47A7300229D
:107CD000C4E90123094B2174084623602946FEF7B5
:107CE000F9FEBF3008D16B69DB0705D56868FFF77F
:107CF00045F8E868FFF742F8204638BD1C9B0B00AA
:107D00000023007C1A461946FEF79CBE7FB5002270
:107D10001423CDE90122ADF804300B788DF808303A
:107D20004B680393CB680493007C0B7A059301A9FD
:107D3000FEF7D8FE07B05DF804FB1FB5003B8DF8D9
:107D400000104FF06401039118BF012369460192AE
:107D50008DF80830FFF7DAFF05B05DF804FB01236A
:107D6000FFF7EBBF007C0022FEF774BEC9B2FFF73D
:107D7000F9BF007C0022FEF775BE0121FFF7F9BFB5
:107D8000002240681146FEF781BF0022406811467C
:107D9000FEF79CBF002240681146FEF7A7BF40686F
:107DA0000022FEF79BBF4068002281F00101FEF730
:107DB00085BF002340681A461946FEF777BF0023A7
:107DC00040681A461946FEF769BF0022406811460E
:107DD000FEF74CBF406800220221FEF74FBF002390
:107DE00040681A46FEF73ABF024B04225A60024A24
:107DF0001A60704724E70320489B0B00002340686B
:107E00001A46FEF72BBF406800220221FEF736BF5C
:107E1000002240681146FEF729BF00224068114643
:107E2000FEF734BF002340681A461946FEF736BFF6
:107E3000002340681A461946FEF738BF4068002103
:107E4000FEF75CBF40680021FEF760BF406800227B
:107E500081F00101FEF732BF40680022FEF73EBF0D
:107E6000002240681146FEF741BF002240681146DB
:107E7000FEF72CBF40680021FEF758BF2DE9F04304
:107E800095B014460D460746FFF7C8FD00211C2299
:107E90000DA8009101F032FA40230C9320466B4666
:107EA0000CAA0021FEF72EFD044600284BD1024605
:107EB00001216868FEF7EAFE0221804622466868D2
:107EC000FEF7E4FE009E81462146002E3BD00029AD
:107ED00039D17368022B03D00A2B11D0F669F4E76D
:107EE000B8F1000FFAD0716906A8043107ADFFF7A9
:107EF000C3FD0FCD3C1D0FC42B6823704146EDE739
:107F0000B9F1000FEAD07469102201A801F0F6F966
:107F100006238DF8143001AD04F1080318341868F5
:107F200059682A4603C20833A3421546F7D101A96E
:107F300006A807ADFFF780FD0FCD3C1D0FC42B68D1
:107F400023704946CAE70098FEF7D4FC384615B0BE
:107F5000BDE8F083033802289ABF024B53F8200093
:107F600001487047849B0B002CE7032008B50022D2
:107F70004068FEF7D3FEBDE80840FFF7EBBF000006
:107F8000024B034A1A6000225A6070472CE7032014
:107F9000989B0B00232813B502D9002002B010BD16
:107FA000A0F10B03022B1AD8174C2178BFF35B8F7B
:107FB00011F001010BD120460191FDF726F801993E
:107FC00028B11248FEF774FF2046FDF723F80F4B47
:107FD0001878FEF7A7FD0028DFD10120DEE7012891
:107FE00009D800F0C7F80021007CFEF76BFD80F097
:107FF0000100C0B2D2E709380128EED800F07AF8C3
:10800000007CFEF707FDF2E7C0E60320C4E603208C
:10801000232838B504460D460AD8FF2908D0FFF7B3
:10802000B9FF28B129462046BDE83840FEF77ABCA2
:1080300038BD38B504460D46FEF77CFCFF2810D04D
:10804000062804D84D2323FA00F0C30709D420469C
:10805000FFF7A0FF28B129462046BDE83840FEF7CB
:1080600071BC38BD10B50446FEF764FC031FDBB2DB
:10807000012B08D92046FFF78DFF20B12046BDE82F
:108080001040FEF767BC002010BD0D2810B5044657
:108090009CBF0E34A4B22046FFF77CFF50B10321F1
:1080A0002046FEF737FC032804D12046BDE81040E7
:1080B000FEF758BC002010BDFEF75CBC7047000006
:1080C00038B5044614252A46002101F017F9258009
:1080D0004025074925812846258200F06FF804498C
:1080E0006060284600F06AF8E060204638BD00BFB6
:1080F000D49B0B0030B50E4D2978BFF35B8F11F088
:10810000010487B011D12846FCF77FFF68B101A8B0
:10811000FFF7D6FF01AA21460648FFF77FFD284654
:10812000FCF778FF044801F0D5F8024807B030BDED
:1081300034E7032038E70320BD800B0070470000C0
:1081400038B50A4B036001230446436108492020E7
:1081500000F034F8202560600549A560284600F04D
:108160002DF8C4E90305204638BD00BF1800010002
:10817000D49B0B0030B50E4D2978BFF35B8F11F007
:10818000010487B011D12846FCF73FFF68B168466B
:10819000FFF7D6FF6A4621460648FFF793FD2846BB
:1081A000FCF738FF044801F095F8024807B030BDED
:1081B00050E7032054E703203D810B00FCF721BF6B
:1081C00008B5FEF7F3FD000038B553EC102BC3F3F0
:1081D0000A5104469C4689BB10EE101A23F0004C4D
:1081E0005CEA010129D0194600223D4B3D4D10EEBD
:1081F000100AFCF7D1F8AC4202460B4616DB8C465F
:10820000C1F30A513639214440F2FE70814221DC2B
:10821000002947DC11F1350F34DA4CF250318C4231
:1082200018DC002B26A1D1E9000144DB24A3D3E90B
:108230000023FCF7B1F841EC100B38BD40F2FF70A1
:108240008142E0D110EE100A1946FBF7EFFE41EC37
:10825000100B38BD002B1CA1D1E9000107DB1AA3CC
:10826000D3E90023FCF798F841EC100B38BD18A1B6
:10827000D1E9000114A3D3E90023FCF78DF841EC08
:10828000100BF3E72CF0FF4C2CF4E00C36314CEAE9
:108290000153104619460022134BFCF77DF841ECC0
:1082A000100B38BD2CF0FF4C2CF4E00C4CEA0153C1
:1082B00043EC102B38BD08A1D1E90001B6E700BF9F
:1082C00059F3F8C21F6EA5019C7500883CE4377E07
:1082D0009C7500883CE437FE59F3F8C21F6EA581F7
:1082E00000005043B03CFFFF0000903C0000000045
:1082F000F8B52DED028B57EC106B55EC114B00F0DF
:10830000CBF8634BB0EE408AF0EE608A93F9003010
:1083100001332AD022462B4620462946FCF7D6FABE
:1083200018BB32463B4630463946FCF7CFFA0028A8
:1083300044D10022002330463946FCF795FAD8B1E3
:108340000022002320462946FCF78EFA00283DD162
:1083500045EC104B00F010FF38B1204629460022B2
:108360000023FCF78BFA00285CD1B0EE480AF0EE4F
:10837000680ABDEC028BF8BDB0EE480AF0EE680A60
:1083800000F0FAFE58B351EC180B00220023FCF762
:108390006BFA0028E9D047EC106B00F0EDFE0028E6
:1083A000E3D045EC104B00F0E7FE0028DDD0FEF7EF
:1083B0000DFD22239FED2E8B0360D6E72046294634
:1083C00000220023FCF750FA0028CED09FED2A8B24
:1083D000B0EE480AF0EE680ABDEC028BF8BD47EC3F
:1083E000106B00F0C9FE0028CDD045EC104B00F01A
:1083F000C3FE0028C7D053EC182B18EE100A1946FC
:10840000FCF764FA20BBFEF7E1FC034622221A6067
:108410003046394600220023FCF730FA48B99FED78
:10842000188BA2E7FEF7D2FC21239FED178B036088
:108430009BE745EC104B00F0B3FE224651EC100BCD
:108440002B46FCF711FA0028E9D19FED0F8B8CE742
:10845000FEF7BCFC002200232121016010461946D2
:10846000FCF7C4F841EC180B7FE700BFAFF30080C6
:108470000000000000000000000000000000F03FCD
:10848000000000000000F07F000000000000F0FF8E
:10849000D8E50320000000002DE9F04F57EC116BE8
:1084A0002DED0C8B27F0004A5AEA060287B03DD02A
:1084B00055EC104B724925F00048884510EE102A03
:1084C000A9462CDC11EE103ABB4636D08A4526DC94
:1084D0006B498A4521D0B9F1000F39DB00210091A9
:1084E000002B51D1664B9A4500F0A280654B9A450E
:1084F00000F0B080BBF1804F00F0C084624B9B4520
:1085000042D1B9F1000F3FDB45EC104B07B0BDEC99
:108510000C8BBDE8F04F00F059BD002BDBD008F10B
:10852000404808F5801858EA020309D19FED500B26
:1085300007B0BDEC0C8BBDE8F08F0CB9C245C7DDB0
:10854000524807B0BDEC0C8BBDE8F04F00F020BEE8
:108550004F498A4500F38580A1F154718A450FDDAA
:108560004FEA2A51A1F2FF31142940F39B84C1F153
:10857000340123FA01F000FA01F1994200F0ED8490
:1085800000210091002BB1D045EC104B029200F07D
:10859000E9FD029A5ABBB8F1000F04D0394B29F01B
:1085A00040429A4223D1BBF1000F07DA53EC102B63
:1085B00034490020FCF71AF841EC100BB9F1000F18
:1085C000B6DA009B08F1404808F5801858EA030322
:1085D00040F08D8453EC102B10461946FBF724FD18
:1085E00002460B46FCF702F841EC100BA0E7009A9C
:1085F0004FEAD973013B0493134335D0254B9A4579
:108600004CDD03F104739A45234B40F3DB8398451B
:1086100040F36083BBF1000F40F3608316A3D3E9FE
:10862000002310461946FBF7B7FE41EC100B7FE71D
:1086300008F1404303F5801313433FF477AF164B23
:10864000984540F37A83BBF1000FC0F2478347ECB3
:10865000106B6DE7BBF1000FC0F21A8445EC104BB4
:1086600066E7022100913BE722462B46B4E700BFB4
:10867000000000000000F03F9C7500883CE4377E5D
:108680000000F07F0000F03F0000E03FD89B0B00AF
:10869000FFFF3F430000E041FFFFEF3FE44B09EAEB
:1086A0000303002253B951EC100BE24BFBF774FEAD
:1086B00041EC100B10EE908A6FF034024FEA285311
:1086C000A3F2FF339A18DC4B0592C8F3130848F065
:1086D0007F54984544F4401407DDD84B984540F347
:1086E000148401320592A4F580149FEDB96B9FEDBF
:1086F000BA7B53EC162BB0EE47CAF0EE67CA0025E2
:10870000B0EE47DAF0EE67DA5BEC10ABA34650460A
:10871000594643EC1A2BFBF787FC53EC1A2B804687
:10872000894650465946FBF781FC02460B4600201D
:10873000C349FBF75BFF41EC1B0B404653EC1B2B83
:108740004946FBF729FE41EC180B0A460146CDE9E4
:1087500002120021029164104BEC19AB44F000545A
:10876000DDE902AB04F500230020591904460D464B
:1087700002460B4650465946FBF70EFE02460B4694
:1087800040464946FBF750FC53EC1A2B804689467D
:1087900020462946FBF748FC02460B4651EC190BD4
:1087A000FBF742FC52465B46FBF7F6FD02460B46E2
:1087B00040464946FBF738FC53EC1B2BFBF7ECFD1E
:1087C00053EC182B41EC190B51EC180BFBF7E4FDA3
:1087D00083A3D3E9002304460D46FBF7DDFD82A306
:1087E000D3E90023FBF722FC22462B46FBF7D4FDFE
:1087F0007FA3D3E90023FBF719FC22462B46FBF7A6
:10880000CBFD7DA3D3E90023FBF710FC22462B46CA
:10881000FBF7C2FD7AA3D3E90023FBF707FC22464E
:108820002B46FBF7B9FD78A3D3E90023FBF7FEFB4A
:108830002246804689462B4620462946FBF7ACFD5A
:1088400002460B4640464946FBF7A6FD5246044603
:108850000D465B4651EC180BFBF7E8FB53EC192B6C
:10886000FBF79AFD22462B46FBF7E0FB524680467B
:1088700089465B4650465946FBF78EFD02460B463D
:1088800043EC1A2B6F4B0022FBF7D0FB42464B46C2
:10889000FBF7CCFB00240D4622462B46504659469A
:1088A000FBF77AFD674B82468B460022204629461D
:1088B000FBF7BAFB53EC1A2BFBF7B6FB02460B4651
:1088C00040464946FBF7B0FB53EC182BFBF764FD21
:1088D00022462B4604460D4651EC190BFBF75CFD76
:1088E00002460B4620462946FBF7A0FB80468946F8
:1088F00042464B4650465946FBF798FB44A3D3E902
:108900000023002004460D46FBF746FD524641EC8D
:10891000190B5B4620462946FBF786FB02460B46B1
:1089200040464946FBF780FB3BA3D3E90023FBF716
:1089300033FD02460B462046294614461D4638A301
:10894000D3E90023FBF728FD02460B4620462946C3
:10895000FBF76CFB53EC1D2BFBF768FB804605987F
:108960008946FBF7AFFC424682468B464B4651ECAC
:10897000190BFBF75BFB53EC1C2BFBF757FB524629
:108980005B46FBF753FB52465B46002004460D4610
:10899000FBF74AFB53EC1C2BFBF746FB53EC192B64
:1089A000FBF742FB02460B4640464946FBF73CFBC1
:1089B000009B049A013B134382468B4640F0B681EC
:1089C0009FED197BB0EE478AF0EE678A3CE000BF6E
:1089D000000000000000F03F000000000000000068
:1089E000EF4E454A287ECA3F65DBC9934A86CD3F94
:1089F00001411DA96074D13F4D268F515555D53F7A
:108A0000FFAB6FDBB66DDB3F033333333333E33F11
:108A1000000000E009C7EE3FFD033ADC09C7EE3F66
:108A2000F5015B14E02F3EBE000000000000F0BF27
:108A30000000F07F000040438E98030079B60B00E1
:108A40000000F03F000008400023CDE900670093DC
:108A5000DDE90089304642464B463946FBF7E4FAE9
:108A600022462B46FBF798FC32463B4606460F460D
:108A700050465946FBF790FC02460B4630463946B5
:108A8000FBF7D4FA42464B4606460F462046294697
:108A9000FBF782FC04460D462B46304639462246FB
:108AA000FBF7C4FAC24B9942804689468A4640F396
:108AB000188101F13F4303F5E003034340F00782CF
:108AC000A3A3D3E9002330463946FBF7AFFA0246A9
:108AD0000B46404649469046994622462B46FBF7B0
:108AE000A3FA02460B4640464946FBF7E5FE00283E
:108AF00040F0ED81CAF30A534FF48012A3F2FE3323
:108B000042FA03F35344AB49C3F30A52A2F2FF32D1
:108B100041FA02FCC3F3130141F48011C2F11402C3
:108B200041FA02F2002023EA0C01BAF1000F009290
:108B30000B46024602DA0099494200912046294636
:108B4000FBF772FA009B1B05029302460B46044694
:108B50000D4630463946FBF769FA89464FF0000862
:108B60007DA3D3E9002340464946FBF715FC224686
:108B70002B4682468B4640464946FBF755FA02464D
:108B80000B4630463946FBF74FFA75A3D3E900236D
:108B9000FBF702FC74A3D3E9002304460D464046CC
:108BA0004946FBF7F9FB02460B4620462946FBF7F0
:108BB0003DFA06460F4632463B4650465946FBF7BD
:108BC00035FA52465B4604460D46FBF72DFA02463F
:108BD0000B4630463946FBF727FA2246804689463F
:108BE0002B4620462946FBF7D7FB61A3D3E9002398
:108BF00006460F46FBF7D0FB5FA3D3E90023FBF744
:108C000013FA32463B46FBF7C7FB5DA3D3E90023CB
:108C1000FBF70CFA32463B46FBF7BEFB5AA3D3E9FF
:108C20000023FBF701FA32463B46FBF7B5FB58A39E
:108C3000D3E90023FBF7FAF932463B46FBF7ACFBDE
:108C400002460B4620462946FBF7EEF906460F463C
:108C500032463B4620462946FBF79EFB02460B4622
:108C60003046394616461F4600224FF08043FBF738
:108C7000DBF902460B4630463946FBF7B7FC424665
:108C800006460F464B4620462946FBF785FB4246E3
:108C90004B46FBF7CBF902460B4630463946FBF70D
:108CA000C3F922462B46FBF7BFF902460B460020CC
:108CB0004149FBF7B9F9029A0B461344B3F5801FFB
:108CC000C0F24381194653EC182BFBF765FB41ECCE
:108CD000100B2DE4BBF1000FFFF6A0AC9FED2E0BA7
:108CE00026E4DFF8DCC021F00043634540F3E78071
:108CF000324B0B4403430AD122462B46FBF794F92F
:108D000032463B46FBF7CEFD00283FF4F3AE24A3EA
:108D1000D3E9002351EC180BFBF73EFB20A3D3E96A
:108D20000023FBF739FB41EC100B01E49FED1E7BA8
:108D3000B0EE478AF0EE678A86E6BBF1000FCDDA27
:108D400007F1004300EE106A00EE903AFFF7F0BB27
:108D5000FE822B654715973C00000000432EE63F3E
:108D6000EF39FAFE422EE63F396CA80C615C20BE5A
:108D7000D0A4BE726937663EF16BD2C541BDBB3E21
:108D80002CDE25AF6A56113F93BDBE166CC1663FFF
:108D90003E5555555555C53F0000000000000000E8
:108DA00059F3F8C21F6EA501000000000000F03F5B
:108DB000FFFF8F40FFFF0F000000F03F00346F3FC8
:108DC000FFCB9040984585DB7D4B98453FF722AC23
:108DD00051EC100B7A4B0022FBF726F968A3D3E97C
:108DE000002304460D46FBF7D7FA67A3D3E9002317
:108DF00082468B4620462946FBF7CEFA714B41EC62
:108E0000180B002220462946FBF7C6FA02460B46FD
:108E10005FA1D1E90001FBF707F922462B46FBF7DA
:108E2000BBFA02460B4600206749FBF7FDF82246D5
:108E3000804689462B4620462946FBF7ADFA024676
:108E40000B4640464946FBF7A7FA53A3D3E9002354
:108E5000FBF7A2FA02460B4651EC180BFBF7E4F8BD
:108E60008046894642464B4650465946FBF7DEF857
:108E7000002052465B4604460D4691E522462B46AD
:108E800020462946FBF788FA41EC100BFFF750BB50
:108E90004B49002022462B46FBF7A8FB41EC100B68
:108EA000FFF746BB002B44D1C1F114014AFA01F08F
:108EB00000FA01F151455AD00093FFF717BB424A1F
:108EC00093425BDCDDE900120291009146E634A397
:108ED000D3E9002351EC180BFBF75EFA30A3D3E97A
:108EE0000023FBF759FA41EC100BFFF721BB009B65
:108EF000012B7FF41DAB10EE901A10EE102A01F139
:108F0000004343EC102BFFF713BB9FED277BB0EE24
:108F100047CAF0EE67CA9FED267BB0EE47DAF0EE67
:108F200067DA9FED257B4FF4802553EC172BFFF775
:108F3000EBBB45EC104B009200F014F9009A002AAC
:108F40007FF492AB0092FFF726BB41EC100B009828
:108F5000FFF73AF951EC100BB5E600F00100C0F153
:108F600002010091002B3FF4C1AAFFF70DBB00F0F6
:108F70000100C0F102030093FFF7B8BA1B15BBE56F
:108F8000000000604715F73F44DF5DF80BAE543E2C
:108F9000555555555555D53FFE822B654715F73F1D
:108FA0009C7500883CE4377E0000004003B8E23F37
:108FB00006D0CF43EBFD4C3E000000000000F83F20
:108FC0000000F03F0000D03F0000E03F2DE9F041FD
:108FD000634A55EC104BAA4300F09F80002D10EE21
:108FE00010CA2B4654DD291563D0C3F31303A1F235
:108FF000FF37C90743F4801304D45B0003EBDC7331
:109000004FEA4C0C4FEADC72002602EB43037F1060
:109010004FEA4C0C4FF0160E34464FF40012A118D4
:10902000994202DC5B1A8C1816445B00BEF1010EFB
:1090300003EBDC734FEA52024FEA4C0CEFD175465A
:1090400020204FF000420AE044D04FEADC710138A2
:1090500001EB43034FEA4C0C4FEA520243D0A342C8
:1090600002EB0E01F0DD002901EB020E0ADBA04647
:109070001B1B614588BF03F1FF33ACEB010C1544AA
:109080004446E2E7BEF1000FF1DB04F10108EFE72F
:1090900025F00042224338D0002D4ED129464FEA18
:1090A000DC22153913464FEA4C5C002AF7D0D60271
:1090B00050D400205B00DD02044600F10100F9D528
:1090C0001A4663460CFA00FCC0F12000C340091B9D
:1090D00013438AE76145B8D8002901EB020ED1DBC2
:1090E00098460023C9E753EA0C0310D168087110B1
:1090F000F30701F17F5101F5001148BF40F0004036
:1091000001EB0753024643EC102BBDE8F0816A1CCB
:1091100016BF681C01364008E9E710EE102A10EE71
:10912000100A2B462946FBF737F922462B46FAF759
:109130007DFF41EC100BBDE8F08110EE102A2046B7
:109140002946FAF771FF02460B46FBF74FFA41EC4E
:10915000100BDAE7634620204FF0FF34B6E700BF7C
:109160000000F07F51EC100B10EE102A21F00043AC
:1091700043EC102B704700BF82B08DED000B0198BF
:1091800040F0004000F58010C00F02B0704700BFF3
:109190009FED010B704700BF000000000000F87F4A
:1091A000F0B553EC102BC3F30A5CACF2FF3113297A
:1091B00010EE100A83B01C464FEAD37E3ADC002939
:1091C00030DB424D45FA01FC03EA0C0515432DD076
:1091D00003EA5C0318434FEA5C0C0CD024EA0C0C45
:1091E0004FF48024132944FA01F10CBF4FF00040E2
:1091F00000204CEA0104364901EBCE0E2346DEE99D
:109200000045024629462046FAF710FFCDE9000145
:10921000DDE9000122462B46FAF706FF41EC100B70
:1092200003B0F0BD23F00041114324D143EC102BD7
:1092300003B0F0BD332908DDB1F5806FF6D11946D2
:10924000FAF7F4FE41EC100BF2E7ACF2134C4FF0DE
:10925000FF3121FA0CF10A42E8D010EA51024FEA3C
:109260005103C8D020EA03034FF0804040FA0CFCC1
:1092700043EA0C00BFE7C3F313031843144A434205
:10928000034302EBCE0E1B0B620C03F400235204CB
:1092900043EA02073B46DEE9006710EE102A30463B
:1092A0003946FAF7C3FECDE9000132463B46DDE917
:1092B0000001FAF7B9FE04F0004421F00041024633
:1092C00041EA040343EC102B03B0F0BDFFFF0F0095
:1092D000E09B0B00002301461A46184600F062B8D6
:1092E0000A44914200F1FF3300D1704710B511F8E4
:1092F000014B03F8014F9142F9D110BD02440346DE
:10930000934200D1704703F8011BF9E738B5104BC1
:109310001D68AB6B0446B3B91820FDF727FD024664
:10932000A86320B90B4B0C484221FDF757FD0B49B0
:109330000B4BC0E900130B4B83600B23838100218F
:109340000120C2E90401AB6B00221C615A6138BDE7
:10935000DCE50320F09B0B00079C0B000E33CDAB2C
:1093600034126DE6ECDE0500024B0146186800F091
:1093700003B800BFDCE5032037B5044608460D46B8
:10938000FBF7FAFD421C114620460192FDF716FD3F
:10939000044618B1019A2946FFF7A2FF204603B000
:1093A00030BD00002DE9F843DFF8B8800646D8F854
:1093B00000001F460D46914600F056F8254B1C68EC
:1093C00034B9254C1C60254B13B11B68C4F8883098
:1093D00063681F2B07DDD8F8000000F047F84FF056
:1093E000FF30BDE8F8834EB3D4F8880088B91C4B31
:1093F00023B9D8F8000000F038F8F0E74FF4847093
:10940000FDF7B4FC0028F4D00023C0E94033C4F8D1
:109410008800636840F8239001229A4000EB8301A2
:10942000D0F800311343C0F80031022EC1F880702B
:1094300002BFD0F804311343C0F804316368D8F890
:1094400000005A1C0233626044F8235000F00EF80A
:109450000020C6E7F4E7032068E7032000000000CF
:109460006D6D0B0040E603207047704770470000A9
:10947000894F0B00C54F0B00ED4F0B00F14F0B0058
:1094800000000000416972205175616C6974792097
:1094900053656E736F722072656164792E00416945
:1094A00072205175616C6974792053656E736F72A7
:1094B000204552524F5221005061727469636C65AD
:1094C00000416972205175616C697479004D6F6E4D
:1094D00069746F72005645522E2000312E30302EA6
:1094E000303100424D453238302053656E736F7213
:1094F0002072656164792E00424D45323830205328
:10950000656E736F72204552524F5221004E6F6E3E
:10951000650044616E676572004869676820506F36
:109520006C6C7574696F6E004C6F7720506F6C6C4B
:109530007574696F6E0046726573682041697200C8
:109540004C504F3A20256C7500526174696F3A2077
:109550002566252500436F6E63656E7472617469BC
:109560006F6E3A202566207063732F4C0054656D32
:10957000703A2000430048756D69646974793A2037
:109580000050726573733A20002068506100447582
:1095900073743A20004261743A002520280056294D
:1095A000004368617267696E673A200020202020BE
:1095B00020202020202020202020202000547275F0
:1095C000650046616C7365007665720074656D7048
:1095D0000068756D6964697479007072657373757C
:1095E0007265006169722D7175616C6974790061D1
:1095F000715F766F6C746167650061715F64656C43
:1096000074615F7600647573742D6C706F0064759F
:1096100073742D726174696F00647573742D636F58
:109620006E63656E74726174696F6E00656E762D1F
:1096300076616C7300416972205175616C6974794F
:109640003A2025730054656D703A202566005072EB
:109650006573737572653A2025660048756D696497
:109660006974793A202566000000000000000000BF
:109670001D500B0031500B0064656661756C7420E1
:10968000004D5342004C5342003C535049536574C3
:1096900074696E67732064656661756C743E003C26
:1096A00053504953657474696E677320257325752B
:1096B000202573204D4F444525753E0000000000D5
:1096C00000000000B1590B0085590B0087590B00B1
:1096D0005C752530345800252E2A660000000000F5
:1096E00000000000B9620B00D5620B000000000012
:1096F00000000000E9620B00FD620B0000000000AA
:109700000200000001000000030000002D00000026
:1097100000000000000000005F00000000000000EA
:1097200007000700000000147F147F1400000024CD
:109730002A7F2A120000002313086462000000360A
:109740004955225000000000050300000000001CE5
:109750002241000000000041221C0000000000081F
:109760002A1C2A0800000008083E0808000000A083
:109770006000000000000008080808080000006001
:109780006000000000000020100804020000003EFD
:109790005149453E00000000427F40000000006249
:1097A000514949460000002241494936000000184D
:1097B00014127F1000000027454545390000003C89
:1097C0004A494930000000017109050300000036D4
:1097D00049494936000000064949291E0000000099
:1097E0003636000000000000AC6C000000000008ED
:1097F000142241000000001414141414000000414D
:109800002214080000000002015109060000003285
:109810004979413E0000007E0909097E0000007F71
:10982000494949360000003E414141220000007F85
:109830004141221C0000007F494949410000007F4E
:10984000090909010000003E414151720000007FFA
:109850000808087F000000417F4100000000002050
:1098600040413F010000007F081422410000007FBA
:10987000404040400000007F020C027F0000007F5B
:109880000408107F0000003E4141413E0000007F7F
:10989000090909060000003E4151215E0000007FD9
:1098A00009192946000000264949493200000001F3
:1098B000017F01010000003F4040403F0000001FC9
:1098C0002040201F0000003F4038403F0000006360
:1098D000140814630000000304780403000000610E
:1098E000514945430000007F414100000000000253
:1098F0000408102000000041417F00000000000427
:1099000002010204000000808080808000000001CD
:109910000204000000000020545454780000007F2E
:10992000484444380000003844442800000000380F
:109930004444487F00000038545454180000000884
:109940007E09020000000018A4A4A47C0000007F8F
:1099500008040478000000007D0000000000008082
:10996000847D00000000007F1028440000000041BA
:109970007F4000000000007C041804780000007C98
:1099800008047C000000003844443800000000FC5B
:1099900024241800000000182424FC00000000000B
:1099A0007C08040000000048545424000000000417
:1099B0007F4400000000003C40407C000000001C90
:1099C0002040201C0000003C4030403C000000448F
:1099D000281028440000001CA0A07C0000000044C7
:1099E00064544C44000000083641000000000000B0
:1099F0007F00000000000041360800000000000267
:109A00000101020100000002050502000000000043
:109A100000000000000000005B6E0B00516E0B00A8
:109A2000476E0B003D6E0B00316E0B00256E0B0078
:109A30003D7E0B00457E0B00196E0B00116E0B0076
:109A4000076E0B00FD6D0B006D7F0B00757E0B002C
:109A50007D7E0B00000810182028303861707000DF
:109A600025592D256D2D25645425483A254D3A2537
:109A700053257A0061736374696D6500000000000E
:109A80000000000079740B007F740B00BD740B00A4
:109A90008D740B007B740B000000000000000000C0
:109AA000B9790B00A9790B00AB790B00000000001D
:109AB000000000009F7A0B00077B0B00DD7A0B0093
:109AC0008D710B00CF7A0B00A17A0B00B17A0B00DD
:109AD000017B0B00DF720B00C17A0B00997A0B003F
